:040000000C94340028
:100004000C9400000C9400000C9400000C9400006C
:100014000C9400000C9400000C9400000C9400005C
:100024000C9400000C9400000C9400000C9400004C
:100034000C9400000C9400000C9400000C9400003C
:100044000C9400000C9400000C9400000C9400002C
:100054000C9400000C9400000C9400000C9400001C
:100064000C940000F894EE27EFBBF1E0F5BFE5BF78
:100074008DE0A2E0BB27ED938A95E9F780E098E054
:10008400A0E0B1E0ED930197E9F7E0E0EEBBEFEF1C
:10009400EDBFE8E0EEBFC0E0D3E00C945100E0E037
:1000A400E4B9E7B9EFE1EAB9E3B1EF70E093000333
:1000B400E3B1E07FE0930103E295EF70E093010385
:1000C400E6B1E770E0930203F0E0309721F4E091A9
:1000D4000003E09530C0E130A0E0FA0711F42ED01F
:1000E4002AC0E230A0E0FA0719F428D0E09523C032
:1000F400E330A0E0FA0711F427D01DC0E430A0E0FB
:10010400FA0719F421D0E09516C0E530A0E0FA070B
:1001140011F420D010C0E630A0E0FA0719F41AD088
:10012400E09509C0E730A0E0FA0731F4E09101035B
:10013400A0910003EA0FEBB9B7CFFFCFE091010321
:10014400A0910003EA230895E0910103A091000324
:10015400EA2B0895E0910103A0910003EA27089592
:00000001FF
