:020000040000FA
:10000000831685017F30860083128501B32002307C
:100010008500861AA2280C280618172886181C287E
:100020000619212886192628061A2B2806280A30A0
:1000300085000E14C02030280A3085008E14C020A0
:1000400030280A3085000E15C02030280A3085007F
:100050008E15C02030280A3085000E16C0203028AA
:1000600006183F2886184228061945288619482868
:10007000061A4B28861AA228061B062830280F14B9
:10008000C0204E288F14C0204E280F15C0204E28A7
:100090008F15C0204E280F16C0204E2806185D2848
:1000A000861860280619632886196628061A6928A2
:1000B000861AA228061B06284E282014C0206C2869
:1000C000A014C0206C282015C0206C28A015C020CA
:1000D0006C282016C0206C2806187B2886187E28DD
:1000E0000619812886198428061A8728861AA228C4
:1000F000061B06286C283014C0208A28B014C020A3
:100100008A283015C0208A28B015C0208A283016C9
:10011000C0208A280E1E93280F1C9328A01D932808
:10012000301D9328A22806308500900AC020C020E8
:10013000101C0628901C06289D2880308600861AF0
:10014000A2289D28B3209001013085000030860050
:10015000061B0628AB28061CA228861CA228C02045
:10016000C020C02006288E018F01A001B00182307E
:100170008C00FF300D088D0BBB288C0BB9280800B4
:0A018000B720B720B720B720B72042
:04018A000034003409
:02400E00F93F78
:00000001FF
