:0C0000000C9486000C9400000C9400008E
:10000C000C9400000C9400000C9400000C94000064
:10001C000C9400000C9400000C9400000C94000054
:10002C000C9400000C9400000C9400000C94000044
:10003C000C9400000C9400000C9400000C94000034
:10004C000C9400000C9400000C9400000C94000024
:10005C000C9400000C9400000C94000003030302A9
:10006C00020C000800010006070507161F1E0E04EF
:10007C00070507161F1E0E020000040515160C04BA
:10008C0000040515161C04042020202020202053D9
:10009C00636F72653A202020200020202020202031
:1000AC0020202020202020202020202047414E41AD
:1000BC005354452000202050455244495354452068
:1000CC002000533A2569202048533A256900010045
:1000DC002D4E414E00494E46000008001E03740090
:1000EC00080026037C0008002E0384000800360359
:1000FC008C0020003E03940001005E03DA00000037
:10010C00F894EE27EFBBF1E0F5BFE5BF8DE0A2E080
:10011C00BB27ED938A95E9F780E098E0A0E0B1E089
:10012C00ED930197E9F7E6EEF0E085919591009754
:10013C0061F0A591B59105901590BF01F001059066
:10014C000D920197E1F7FB01F0CFE0E0EEBBEFEF92
:10015C00EDBFE8E0EEBFC0E0D3E00C9473022C9747
:10016C008CE060E070E0E8E6F0E0F7D40A93539A94
:10017C00529A549A559A569A579AA2E3B0E08ED551
:10018C0000E00C3070F4A2E0B0E088D5E02FF0E095
:10019C00DE011196AE0FBF1FAC910FD00BD00F5FCD
:1001AC00F0CFECE0E0930003A09100031ED0088197
:1001BC002D9608955B9A5B9808950A930A2F03FF76
:1001CC0002C05F9A01C05F9802FF02C05E9A01C034
:1001DC005E9801FF02C05D9A01C05D9800FF02C0ED
:1001EC005C9A01C05C98099108951A930A931A2F8E
:1001FC005A98B5D30C9484041A930A931A2F5A9ACA
:10020C00AED30C948404BFD3C3D3A491F5DFE02FF9
:10021C00F0E0E10FF21FE491E030B1F79AD42FC077
:10022C00B2D3B6D3A081E8DFB9D3EC91E030C9F7F3
:10023C0090D425C0A1E0D9DF08951A930A930A2F10
:10024C001A81E02FF0E0309719F4A12FA05814C0B8
:10025C00E130A0E0FA0719F4A12FA0540DC0E23050
:10026C00A0E0FA0719F4A12FAC5606C0E330A0E0C9
:10027C00FA0719F4A12FAC52B8DF19810881239623
:10028C0008955FD41A2F2B2F3C81E32FEE0FEE0F26
:10029C00EE0FE05CAE2FA9DF00E0083028F47ED32F
:1002AC00AC91AADF0F5FF9CFA0E89FDF51D4259660
:1002BC000895A0911A03B0911B031197F1F4E2E198
:1002CC00E0931203A0911203AF3128F46DD3A0E296
:1002DC00A08370D3F7CFAEDFE0E0E0931A03E09396
:1002EC001B03E0931203A0911203A23330F4419A42
:1002FC0067D3419865D35ED3F6CFAAEFB0E0CED4E6
:10030C00E6B5F0E0DF01F4D2FCD2DF01EFE1F0E082
:10031C00A0D4EE5FE0931303A0911303A43008F470
:10032C0001C0E0E2E0935D03E0E1E0931203A091F1
:10033C001203A032A0F538D3A081A23011F0A33063
:10034C0061F52197A0911203AF3138F4E0911203BB
:10035C00F0E0E15CFC4FE08101C0E0E2E883E09179
:10036C001203F0E03197E25CFC4FA081A23020F444
:10037C00E1E0F0E021960895E0911203F0E00F0126
:10038C003197E25CFC4FDF01F001E25CFC4FE08155
:10039C00EC930AD3A881A08321960CD3C8CFE0E2BA
:1003AC00E0934D03A0914E03A23010F4E0934E0362
:1003BC00E0E0F0E008951A930A937BDF8F01A0919F
:1003CC001C03B0911D03119709F4FFD211D3A73E62
:1003DC00E3E0BE07E1F411D3A4EBB0E014DF12D3D9
:1003EC00A0E00ADFA0E212D318D306DF16D30ED397
:1003FC00A0E202DFA1E017D3A0911203A83730F4DA
:10040C00419A16D3419814D3D5D2F6CF16D3002ED9
:10041C00012A71F1F2D2A0E0EFDEA3E0EDDEA1EC57
:10042C00B0E0F1DEA3E0E8DEEDD216D3E1D2AE17F8
:10043C00BF0728F016D3E0931403F093150316D3DB
:10044C00EEECF0E018D308D3662777271ED488E0AB
:10045C001ED22C9617D3E0931203A0911203AC3347
:10046C0030F4419A14D3419812D3A4D2F6CFE5D2EA
:10047C00A6E1B3E011D3EDE0EA93A0E0DEDEF6D224
:10048C00E7EDF0E0F8D284E002D22896FBD2EA93B2
:10049C00A0E0D3DEE0E0E0931203A0911203A032BF
:1004AC00D8F482D2A081A23038F47ED20F01A08180
:1004BC00E1E0EA27D001EC93A0911203A03109F4FA
:1004CC00A1D2A0911203AD3010F0A03118F06CD273
:1004DC00A08192DE6FD2E1CF11C2E0E8E09361001F
:1004EC00E4E0E09361003BDE409A399AE1E0E5BD3F
:1004FC00E0E0EA93AEE1B3E0C4DEE1E0EA93A6E229
:10050C00B3E0BFDEE2E0EA93AEE2B3E0BADEE3E0F2
:10051C00EA93A6E3B3E0B5DEC5D2E1E0F0E0EA276A
:10052C00FB27E0931803F0931903309903C0BAD258
:10053C00119709F033C0E1E0F0E0E0931C03F09375
:10054C001D0343D2E0E0E0931203A0911203A43008
:10055C0020F43BD230DF2ED2F8CFE0E0E0931C0346
:10056C00E0931D03E0E2E0933F03E0E0E0934F03F0
:10057C00E1E0EA93A0E061DEA0E23EDEE1E0EA9396
:10058C00A1E05BDEA0E04FD2A0911203A03530F4C5
:10059C00419A8DD241988BD20DD2F6CF0CDFBCCFC5
:1005AC00FFCFCED29D014D81129665D33097E1F0ED
:1005BC00D901149660D38F01309759F00230E0E0E6
:1005CC001E0760F0F80131978F01D9011496ED9355
:1005DC00FC93D901129660D231974083D9014BD349
:1005EC00FF230AF059D205C0D901EFEFFFEFED93CD
:1005FC00FC93ADD226960895BA93AA932B979FD2CB
:10060C0000E0A989BA89E0E0F0E0ED93FC93EF8972
:10061C00F88D3196EF8BF88F3197E4913E2FE030C7
:10062C0009F42EC1E02FE03031F4353211F401E041
:10063C0001C042D224C1E130A1F4353211F43CD2D4
:10064C001DC102E050E010E03D3211F411E017C181
:10065C003B3211F45BE213C1303211F450E20FC1A2
:10066C0002C0E23039F440E003E0303311F410689A
:10067C0006C102C0E33091F4303310F03A3308F085
:10068C0007C0AAE04A9F402DE32FE0534E0FF7C05E
:10069C003C3619F4126005E0F2C003C0E53009F0F5
:1006AC00EEC0E32FE33639F40ED2ED89FE89A48136
:1006BC00AA930FD2E3C0E33729F405D210D236D176
:1006CC000E2F07C0E03751F4FED109D23BD10E2FCB
:1006DC0018601F77E0E0E88B20E059C0E43611F099
:1006EC00E93611F4146002C0E53791F4EAE0E88BC6
:1006FC0011FF07C0E0E0FAEC6AE97BE3FAD10AE00B
:10070C001FC0E0E1F7E260E070E0F3D105E018C053
:10071C00E83511F4186003C0E83709F0AFC0E0E128
:10072C00E88B11FF07C0E0E0F0E060E070E1E1D1A0
:10073C0008E006C0E0E0F0E160E070E0DAD104E04F
:10074C0011FF06C0C0D1AD89BE89149698D20AC0DB
:10075C0012FF04C0B8D1D2D120D204C0B4D1CED1B2
:10076C0066277727EC87FD876E877F8712FF0FC080
:10077C00AF85AA233AF4EC85FD856E857F8505D27D
:10078C00C2D15DE2503011F00F5F01C01B7F10FD34
:10079C0010C0041770F417FF08C012FF04C01B7FB1
:1007AC00352F015001C030E301C030E285D14150FA
:1007BC00F0CF202FE889E030B1F4203099F013FF0E
:1007CC0006C0EE81FF813591EE83FF8305C0AE81BB
:1007DC00BF813D91AE83BF836FD1403009F0415052
:1007EC002150EBCF42C094D110D23E2F3A3030F092
:1007FC0013FF02C0395C01C0395A01C0305D14FDD1
:10080C001EC0313348F48DD1A130E0E0BE07E0E0EA
:10081C008E07E0E09E0709F409C0421710F010FFA4
:10082C0001C011C030E217FF0AC030E3106112FFA3
:10083C0006C01B7F5A934DD1403009F041503CD13A
:10084C00403009F04150215063D111D25CD1E8897C
:10085C0068D1FF2766277727D8D14BD1E885F98552
:10086C006A857B8517D209F0BECF10FF07C04030D8
:10087C0029F04150E0E2EA932CD1F9CF00E0C7CE49
:10088C00A989BA89ED91FD9161D169960895FF927C
:10089C00F82E269754D1FE016CD146855785042E2F
:1008AC00052A19F4EFEFFFEF1FC0DE01189665D192
:1008BC008D0148875987E0E0EA87EB87DE011C96BB
:1008CC005CD1ED91FD91FA93EA931A930A93E7EDBB
:1008DC00F2E0FA93EA93DE011C968EDE9F01A88566
:1008EC00B985E0E0EC93F90131D12C96FF90089595
:1008FC001A930A938D01F80150D118D109911991CD
:10090C000895E0915E03F0915F0360916003709134
:10091C006103ADE6BEE486EC91E444D1EE59F848AF
:10092C006F4F7F4F03D1FB01FF770895BA93AA93C2
:10093C00A991B991EE27FF276D91662311F031969D
:10094C00FBCF0895BA93AA93AA27BB27E991F991F3
:10095C000590002011F01196FBCFFD010895A2E047
:10096C00B0E09CD1E12FE07F0E2F02950F70A02FED
:10097C0024DC20DCE12FEF700E2FA02F1EDCA2E078
:10098C00B0E08CD117CCDED01A2F2B2F00E00895BD
:10099C00E02F0F5FF0E0E10FF21F0895A12FB22FAF
:1009AC00EE27A00FBE1F0895E0911203F0E0E25C69
:1009BC00FC4F0895E0911203EF5FE093120308954A
:1009CC0084EF91E00197F1F70895E1E0EA93A1E05B
:1009DC0034DCA0E211DCE1E0EA93A0E02EDCA0E044
:1009EC000BDCE0E0E0933F03E0E2E0934F0308957B
:1009FC00A0911603B091170308951CDCE0E0EA9374
:100A0C00A0E01BCCE0E0EA93A1E017CCF5DBA2E080
:100A1C00F3DBA2E0F1DBA2E0EFCBA3E0EDDBA3E0A4
:100A2C00EBDBA3E00895E8DBE0E0E093120308952C
:100A3C0081ED90E00197F1F70895E1E0F0E0E093AB
:100A4C001A03F0931B03A8EBBBE028D1E0E0E09382
:100A5C001603E0931703EECBE0911403F09115030A
:100A6C000895E0911603F09117030895E1E0F3E087
:100A7C00FA93EA930895FA93EA93F3DF66277727BC
:100A8C0004D10895A1E0B3E0CBDBE0E008958CE95C
:100A9C0091E00197F1F70895ED91FD913196FE9358
:100AAC00EE930895A0911803B0911903089588E36B
:100ABC0091E00197F1F708953A93AA89BB89EC89E3
:100ACC00FD8909950895ED89FE893497ED8BFE8B90
:100ADC000895AA89BB89EC89FD8909950895AD898A
:100AEC00BE891496ED91FD91EE83FF83AE81BF819B
:100AFC000895E887F9876A877B870895AD89BE8951
:100B0C001496B9D00895EC87FD876E877F8708957A
:100B1C00E885F9856A857B85AC85BD858E859F8545
:100B2C000895A885B9858A859B850895E0935E0311
:100B3C00F0935F03609360037093610308955A937D
:100B4C004A933A932A931A930A9308955D814C81A0
:100B5C003B812A81198108810895AF93BF93DB01F2
:100B6C00AC0FBD1F05900D928A95E1F7BF91AF9127
:100B7C0008950024EF0DF01D08950024AF0DB01D55
:100B8C000895F195E195F0400895F0956095709574
:100B9C00E195FF4F6F4F7F4F08956F2F660F660BD8
:100BAC00762F08957A9F702D6B9F700DF89F700DA6
:100BBC00E99F700D6A9F602D710DFB9F600D711D7B
:100BCC00E89F600D711D8827FA9FF02D610D781F2D
:100BDC00EB9FF00D611D781FEA9FE02DF10D681F52
:100BEC00781F08950024112490E1AA0FBB1F001C4C
:100BFC00111C0E1A1F0A18F40E0E1F1E01C0A16044
:100C0C009A9599F7FD01D00108953F934F935F9307
:100C1C0000241124A00130E2AA0FBB1F881F991FCA
:100C2C00001C111C441F551F0E1A1F0A460B570B94
:100C3C0028F40E0E1F1E461F571F01C0A1603A95C7
:100C4C0059F7FD01BC01D001CA015F914F913F9151
:100C5C000895E894B7FF04C0B195A195B04068948D
:100C6C00F7FD8FDFBFDFFD010EF48BDF0895CDDFC5
:100C7C00FD01BC010895ED91FC9111970895ED9142
:100C8C00FD916D917C91139708957A936A93FA93E1
:100C9C00EA9308953097604070400895109639F0AB
:100CAC00A8958AEF90E00197F1F71197C9F708958D
:00000001FF
