:020000040000FA
:020000000D28C9
:10000800CE00030E83128E000A088F004F0890005E
:100018001B290E288B219D008C219E009701980199
:1000280099019A019B019C0183011A288316850175
:10003800831285018B018B178B150B1683121B03FB
:100048001C04031D28282928162919031A04031D2E
:100058002E282F2800298D28051485101A3096007F
:10006800F8309500950B3628960B36280000831239
:10007800051068309600E4309500950B4128960BE2
:100088004128000022280514851034309600F130EC
:100098009500950B4D28960B4D2852288312051074
:1000A8004E309600EB309500950B5828960B582843
:1000B8002228051485104E309600EB309500950BDC
:1000C8006328960B63288312051034309600F130AC
:1000D8009500950B6D28960B6D287228222805141B
:1000E800851068309600E4309500950B7928960BBA
:1000F80079280000831205101A309600F830950010
:10010800950B8428960B8428000022280514851056
:1001180022281E08003A0319922819291D08003AB6
:1001280003193028013A03194728033A03195D28AF
:10013800013A03197328073A03198A28192905105F
:1001480085141A309600F8309500950BA928960B5F
:10015800A92800008312851068309600E4309500C5
:10016800950BB428960BB428000022280510851496
:1001780034309600F1309500950BC028960BC028B6
:10018800C528831285104E309600EB309500950BEC
:10019800CB28960BCB282228051085144E309600C4
:1001A800EB309500950BD628960BD6288312851030
:1001B80034309600F1309500950BE028960BE02836
:1001C800E52822280510851468309600E43095004B
:1001D800950BEC28960BEC280000831285101A303A
:1001E8009600F8309500950BF728960BF728000035
:1001F80022280510851422281E08003A031905290B
:1002080019291D08003A0319A328013A0319BA2825
:10021800033A0319D028013A0319E628073A0319C3
:10022800FD28192905108510222822280D28273095
:100238008D00F5308C008C0B1F298D0B1F298B1C12
:1002480026292729362983121B081C04031D2D295A
:100258002E29332901309B0000309C0079299B010D
:100268009C0179298312861E3A293B2948291908B5
:100278001A04031D402941294629013099000030FC
:100288009A00482999019A01061F4B294C2960298F
:100298001E08803ACF0080304F02031D55290430D4
:1002A8001D020318582959296029013083129D0716
:1002B80003189E0A00309E078312861F6429652949
:1002C80079291E08803ACF0080304F02031D6E291D
:1002D80001301D02031C712972297929FF3083120C
:1002E8009D0703189E0AFF309E07831206088C009C
:1002F8008D010C0897000D0898000B108B10100842
:100308000F088A000E0E8300CE0E4E0E090002342E
:020318000034AF
:02400E00F93F78
:00000001FF
