:060000000C9453000C9467
:1000060000000C9400000C9400000C9400000C946A
:1000160000000C9400000C9400000C9400000C945A
:1000260000000C9400000C9400000C9400000C944A
:1000360000000C9400000C9400000C9400000C943A
:1000460000000C9400000C9400000C9400000C942A
:1000560000000C9400000C9400000C9400000C941A
:10006600000003030302020C000800010006E3037C
:100076002050656F706C6520436F756E74657200F5
:1000860025303033690001002D4E414E00494E4661
:100096000000020001037400010014038C0000003C
:1000A600F894EE27EFBBF1E0F5BFE5BF8DE0A2E0E7
:1000B600BB27ED938A95E9F780E098E0A0E0B1E0F0
:1000C600ED930197E9F7E8E9F0E0859195910097BE
:1000D60061F0A591B59105901590BF01F0010590CD
:1000E6000D920197E1F7FB01F0CFE0E0EEBBEFEFF9
:1000F600EDBFE8E0EEBFC0E0D3E00C9427012C97FB
:100106008CE060E070E0E8E6F0E020D30A93539AD2
:10011600529A549A559A569A579AA2E3B0E076D3D1
:1001260000E00C3070F4A2E0B0E070D3E02FF0E015
:10013600DE011196AE0FBF1FAC910FD00BD00F5F33
:10014600F0CFECE0E0930003A09100031ED00881FD
:100156002D9608955B9A5B9808950A930A2F03FFDC
:1001660002C05F9A01C05F9802FF02C05E9A01C09A
:100176005E9801FF02C05D9A01C05D9800FF02C053
:100186005C9A01C05C98099108951A930A931A2FF4
:100196005A9804C01A930A931A2F5A9AA2E0B0E00A
:1001A60035D3E12FE07F0E2F02950F70A02FD5DFFC
:1001B600D1DFE12FEF700E2FA02FCFDFA2E0B0E04E
:1001C60025D3C8DF09911991089544D248D2A49144
:1001D600E1DFE02FF0E0E10FF21FE491E030B1F74C
:1001E600B1D230C037D23BD2A081D4DFA12FB22FFB
:1001F600EE27A00FBE1FEC91E030A9F7A3D222C0D4
:100206001A930A930A2F1A81E02FF0E0309719F417
:10021600A12FA05814C0E130A0E0FA0719F4A12FCD
:10022600A0540DC0E230A0E0FA0719F4A12FAC5695
:1002360006C0E330A0E0FA0719F4A12FAC52A5DFFF
:100246001981088123960895E0E8E0936100E4E0CF
:10025600E093610054DFA6E7B0E0B7DF409A419A29
:10026600429A03D230990EC0E0E0E0930103E09396
:100276000203FBD1AEE1B0E0C9D2309BFECFAAE0CB
:10028600B0E0C4D2319910C009D2BCD228F40BD246
:100296003197FE93EE93E9D1AEE1B0E0B7D2319B50
:1002A600FECFAAE0B0E0B2D2329912C0F7D1A73E93
:1002B600E3E0BE0728F4F7D13196FE93EE93D5D14D
:1002C600AEE1B0E0A3D2329BFECFAAE0B0E09ED270
:1002D600C9CFFFCF2ED29D014D81129680D2309785
:1002E600E1F0D90114967BD28F01309759F0023094
:1002F600E0E01E0760F0F80131978F01D9011496EE
:10030600ED93FC93D9011296D3D131974083D9014D
:1003160066D2FF230AF0CCD105C0D901EFEFFFEF7B
:10032600ED93FC930DD226960895BA93AA932B9734
:10033600FFD100E0A989BA89E0E0F0E0ED93FC93F3
:10034600EF89F88D3196EF8BF88F3197E4913E2F38
:10035600E03009F42EC1E02FE03031F4353211F4EB
:1003660001E001C0ABD124C1E130A1F4353211F472
:10037600A5D11DC102E050E010E03D3211F411E0BC
:1003860017C13B3211F45BE213C1303211F450E273
:100396000FC102C0E23039F440E003E0303311F41B
:1003A600106806C102C0E33091F4303310F03A33DE
:1003B60008F007C0AAE04A9F402DE32FE0534E0FF6
:1003C600F7C03C3619F4126005E0F2C003C0E53010
:1003D60009F0EEC0E32FE33639F477D1ED89FE89D3
:1003E600A481AA9378D1E3C0E33729F46ED179D1F9
:1003F60018D10E2F07C0E03751F467D172D11DD145
:100406000E2F18601F77E0E0E88B20E059C0E43635
:1004160011F0E93611F4146002C0E53791F4EAE010
:10042600E88B11FF07C0E0E0FAEC6AE97BE363D1F1
:100436000AE01FC0E0E1F7E260E070E05CD105E0B1
:1004460018C0E83511F4186003C0E83709F0AFC0EA
:10045600E0E1E88B11FF07C0E0E0F0E060E070E16A
:100466004AD108E006C0E0E0F0E160E070E043D188
:1004760004E011FF06C029D1AD89BE891496B3D117
:100486000AC012FF04C021D13BD17CD104C01DD1CA
:1004960037D166277727EC87FD876E877F8712FF20
:1004A6000FC0AF85AA233AF4EC85FD856E857F855E
:1004B60061D12BD15DE2503011F00F5F01C01B7F7F
:1004C60010FD10C0041770F417FF08C012FF04C017
:1004D6001B7F352F015001C030E301C030E2EED062
:1004E6004150F0CF202FE889E030B1F4203099F068
:1004F60013FF06C0EE81FF813591EE83FF8305C0B1
:10050600AE81BF813D91AE83BF83D8D0403009F024
:1005160041502150EBCF42C0FDD039D13E2F3A3069
:1005260030F013FF02C0395C01C0395A01C0305D9A
:1005360014FD1EC0313348F4F6D0A130E0E0BE070A
:10054600E0E08E07E0E09E0709F409C0421710F0CC
:1005560010FF01C011C030E217FF0AC030E310617E
:1005660012FF06C01B7F5A93B6D0403009F04150A7
:10057600A5D0403009F041502150CCD02CD1C5D067
:10058600E889D1D0FF276627772701D1B4D0E8853F
:10059600F9856A857B8532D109F0BECF10FF07C089
:1005A600403029F04150E0E2EA9395D0F9CF00E0DF
:1005B600C7CEA989BA89ED91FD91C1D069960895F2
:1005C600FF92F82E2697B4D0FE01CCD046855785EB
:1005D600042E052A19F4EFEFFFEF1FC0DE0118966F
:1005E600C5D08D0148875987E0E0EA87EB87DE01B1
:1005F6001C96BCD0ED91FD91FA93EA931A930A9357
:10060600EDE6F1E0FA93EA93DE011C968EDE9F0199
:10061600A885B985E0E0EC93F90191D02C96FF907E
:100626000895BA93AA93A991B991EE27FF276D91E0
:10063600662311F03196FBCF0895BA93AA93AA27A1
:10064600BB27E991F9910590002011F01196FBCF97
:10065600FD01089570D01A2F2B2F00E00895E02F8A
:100666000F5FF0E0E10FF21F0895E3E0F3E0FA9385
:10067600EA93E6E8F0E0FA93EA93E0910103F09159
:10068600020366277727B5D084E09ADF2896E6E04E
:10069600EA93A1E0B5DDA3E0B3E0A4CDA091010308
:1006A600B09102030895A1E0B3E0ED91FD910895A4
:1006B600ED91FD913196FE93EE9308953A93AA89B2
:1006C600BB89EC89FD8909950895ED89FE893497E2
:1006D600ED8BFE8B0895AA89BB89EC89FD89099566
:1006E6000895AD89BE891496ED91FD91EE83FF8341
:1006F600AE81BF810895E887F9876A877B87089569
:10070600AD89BE8914966BD00895EC87FD876E87F8
:100716007F870895E885F9856A857B85AC85BD85E3
:100726008E859F850895A885B9858A859B850895B8
:100736005A934A933A932A931A930A9308955D819A
:100746004C813B812A81198108810895AF93BF931B
:10075600DB01AC0FBD1F05900D928A95E1F7BF91A5
:10076600AF9108950024EF0DF01D08950024AF0DFC
:10077600B01D0895F09560957095E195FF4F6F4F08
:100786007F4F08956F2F660F660B762F08953F9360
:100796004F935F9300241124A00130E2AA0FBB1FE0
:1007A600881F991F001C111C441F551F0E1A1F0A73
:1007B600460B570B28F40E0E1F1E461F571F01C06F
:1007C600A1603A9559F7FD01BC01D001CA015F91BC
:1007D6004F913F910895DBDFFD01BC010895ED9136
:1007E600FC9111970895ED91FD916D917C91139770
:1007F60008957A936A93FA93EA930895309760403E
:100806007040089500240A160B060895109639F0D4
:10081600A8958AEF90E00197F1F71197C9F7089527
:00000001FF
