:0C0000000C94D0000C9400000C94000044
:10000C000C9400000C9400000C9400000C94000064
:10001C000C9400000C9400000C9400000C94000054
:10002C000C9400000C9400000C9400000C94000044
:10003C000C9400000C9400000C9400000C94000034
:10004C000C9400000C9400000C9400000C94000024
:10005C000C9400000C9400000C940000B8010400F7
:10006C00B8010400B80104005D01F8FF0B02100098
:10007C00B80104005D01F8FF0B021000B80102008A
:10008C00930204009302040093020400BA02F8FFE6
:10009C000B021000B80104005D01F8FF0B02100008
:1000AC00B801020070030400B801F8FFB801100099
:1000BC00700304003F03F8FF100310006E021000E1
:1000CC004B0210006E02080000000800B801080086
:1000DC006E0204004B02F8FF2A0210000B02100003
:1000EC00EE0110000B021000000008005D0108007A
:1000FC009F0104005D01F8FFB801F0FF0B02040042
:10010C00B801F8FF0B021000930202000601040074
:10011C004A010400880104004A010400060104009D
:10012C004A0108008801FCFF4A010400DC000400BD
:10013C00060104004A01040006010400DC0004006E
:10014C00060108004A01FCFF06010400C40004007B
:10015C00F700040026010400F7000400C4000400AA
:10016C00F70008002601FCFF2C001700D007010047
:10017C002D4E414E00494E46000001000003740113
:10018C0001000203760102000403780101000E0352
:10019C007A010000F894EE27EFBBF1E0F5BFE5BF64
:1001AC008DE0A2E0BB27ED938A95E9F780E098E01B
:1001BC00A0E0B1E0ED930197E9F7E6E8F1E0859175
:1001CC009591009761F0A591B59105901590BF019F
:1001DC00F00105900D920197E1F7FB01F0CFE0E003
:1001EC00EEBBEFEFEDBFE8E0EEBFC0E0D3E00C9468
:1001FC00400192D124971A930A93219AEE81FF81A0
:10020C0068857985A0E0B4E284EF98E4D3D2EA83E0
:10021C00FB836C837D83C3D18F01AA81BB818C81CD
:10022C009D8166277727F4D17CD125D2DF01CB01C4
:10023C00E0E0F0E060E07FE301D310F00F5F1F4FD0
:10024C00E0E4E0938000E9E0E0938100F80131976D
:10025C00EF2FF0E0E0938900E02FE150E09388006D
:10026C00198108812A960895E0E0E0938000E093DC
:10027C0081000895E0E8E0936100E4E0E093610020
:10028C00409A419A79D0309939C07CD009F480D009
:10029C0079D019F0AEE1B0E0F1D26ED0E09100036C
:1002AC00F09101037BD018F5319901C080D06AD050
:1002BC00F1F084D0EE0FFF1FE659FF4F84D01CF4F1
:1002CC008DD091D008C0A0910703AA2322F495D019
:1002DC008AD09CD0A2D0319902C069D006C06ED011
:1002EC00A8E6B0E0A5D0AFD0B8D0BFD0D7CF4AD019
:1002FC0029F0309BFECFAAE0B0E0C0D23DD03199BE
:10030C0039C040D009F444D03DD019F0AEE1B0E092
:10031C00B5D232D0E0910203F09103033FD018F52F
:10032C00309901C044D02ED0F1F048D0EE0FFF1F11
:10033C00E65EFE4F48D01CF451D09ED008C0A09170
:10034C000703AA2322F459D097D060D066D03099F5
:10035C0002C02DD006C032D0A8E1B1E069D073D074
:10036C007CD083D0D7CF0ED029F0319BFECFAAE022
:10037C00B0E084D287CFFFCFE0E0E0930A03E093B4
:10038C000B030895A0910C03B0910D0311970895E0
:10039C00E0E0E0930C03E0930D030895EE0FFF1FD4
:1003AC00A0910A03B0910B03AE17BF070895E1E0CB
:1003BC00F0E0E0930C03F0930D030895E0910A0331
:1003CC00F0910B030895A4D0E0930603F093070378
:1003DC00A0910603B0910703B1D00895E0910603F4
:1003EC00F09107030895A0910403B09105037DD00B
:1003FC00E0930803F09309030895F0DFAFEFBFEF2C
:10040C005CD0E0930603F0930703E8CFE091080378
:10041C00F091090345D0FCD00895A0E0B0E080EC49
:10042C009FE37AD1A8E0B3E0BCD0ED93FC930895A0
:10043C00EE0FFF1FEA0FFB1F6BD032D0E9D0DF01AC
:10044C00CB01D7DEE3CFA6E6B6E686E69FE364D122
:10045C00A6D0DF0113D208DFD9CFADECBCEC8CEC0D
:10046C009DE35AD19CD0DF0109C2A8DF3296E093FC
:10047C000A03F0930B030895ACEDB5E036D0E0938E
:10048C000803F09309030895F195E195F040089560
:10049C00F09560957095E195FF4F6F4F7F4F0895E4
:1004AC006F2F660F660B762F0895FA9FF02DEB9F3A
:1004BC00F00DEA9FE02DF10D08951CD0F6DF0EF43F
:1004CC00E3DF08950024112490E1AA0FBB1F001C48
:1004DC00111C0E1A1F0A18F40E0E1F1E01C0A1606B
:1004EC009A9599F7FD01D001089504D0EBDF0EF435
:1004FC00CBDF0895E894F7FF02C0C6DF6894B7FF1E
:10050C0006C0B195A195B04000F8039400FA089587
:10051C000590F491E02D08959A938A93BA93AA9337
:10052C000895182E862F612D192E972F712D1B2EA5
:10053C00BF2FF12D1A2EAE2FE12D089500240A168F
:10054C000B060895552342F4503811F4E0FF04C013
:10055C003196691F791F6BF050E8572711F45F93A0
:10056C00CAC05F3F31F0660F000C57956795752F29
:10057C0008955F9300200AF0C9C0C2C050E8192E3C
:10058C001522880F991F9527550F879550E8072E30
:10059C000522660F771F7527550F67950895689488
:1005AC0001C0E8945F93F2DF703818F07F3F08F4D5
:1005BC00A2C056E1571BAAF4519558300EF459308D
:1005CC0030F0EFEFFFEF6FEF7FE777F91AC0772787
:1005DC005523B9F0EE0FFF1F661F771F5A95D1F701
:1005EC0010C07727583028F0EF2FF62F672F585070
:1005FC00F9CF552331F076956795F795E7955A9590
:10060C00D1F700200AF444DF5F910895689401C08B
:10061C00E894309760407040B1F0002426F07723C6
:10062C0012F4009435DF172E7EE1112032F07A950A
:10063C00EE0FFF1F661F111CF9CFEF2FF62F612D48
:10064C005F938ADF5F9108954F93AF01FD01DA014B
:10065C00AB01BC01CA01402D012C142E4F91089501
:10066C00EA0FFB1F681F0895E095F0956095EF5F0A
:10067C00FF4F6F4F08955F9381DF903849F150E839
:10068C001526703821F1572F591B2BF112F4DCDF92
:10069C00FACF583118F0AA27BB278827583028F0F2
:1006AC00AB2FB82F88275850F9CF552329F08695B2
:1006BC00B795A7955A95D9F7502D512572F0D0DFE3
:1006CC0038F46795F795E795739513F41FC0BCDF65
:1006DC0043DF5F910895D8F7FBCFEA1BFB0B680B48
:1006EC0051F010F40094C0DF662392F3EE0FFF1F5D
:1006FC00661F7A95CBF7EE27FF27BF015F91089510
:10070C00EFEFFFEF6FE77FEF5F910895EFEFFFEFF4
:10071C006FE77FE75F9108955F9330DF703859F38F
:10072C00903849F301240894791F23F424F3002012
:10073C003AF3ECCF0F921F932F933F934F931127C4
:10074C0022279927689FA0018F9F302D410D591F9B
:10075C006B9F300D411D591F8E9F27D0BF9F25D0F9
:10076C006A9F23D0BE9F1DD0AF9F1BD0AE9F110D93
:10077C00291F391F491F591FE32FF42F652F522FA3
:10078C004F913F912F911F910F9066232AF0550F97
:10079C00EE1FFF1F661F02C073954BF2D3DE5F91F5
:1007AC000895100D211D391F02C0200D311D491F48
:1007BC00591F08955F93E2DE703821F411200AF47A
:1007CC009FCFA4CF903809F496CF01240894970BAF
:1007DC001BF4D4F30020F3CF792F1F932F933F9367
:1007EC004F931124112722273327A90190E2AE172A
:1007FC00BF078607410730F0AE1BBF0B860B410BC2
:10080C00089401C08894551F221F331F111CAA1F66
:10081C00BB1F881F441F9A9551F7F901612D4F9109
:10082C003F912F911F91662332F0550FEE1FFF1F42
:10083C00661F7A954BF286DE5F91089599239AF0A4
:10084C00772342F0971748F029F4AE17BF078607B5
:10085C0020F031F098948894089598940894089511
:10086C001894889408957723C2F7971798F3A9F7EB
:10087C00EA17FB07680788F399F3ECCF109639F069
:10088C00A8958AEF90E00197F1F71197C9F70895B1
:00000001FF
