:060000000C9442000C9478
:1000060000000C9400000C9400000C9400000C946A
:1000160000000C9400000C9400000C9400000C945A
:1000260000000C9400000C9400000C9400000C944A
:1000360000000C9400000C9400000C9400000C943A
:1000460000000C9400000C9400000C9400000C942A
:1000560000000C9400000C9400000C9400000C941A
:10006600000003030302020C00080001000625300D
:1000760032693A253032693A253032690000F894FF
:10008600EE27EFBBF1E0F5BFE5BF8DE0A2E0BB27B1
:10009600ED938A95E9F780E098E0A0E0B1E0ED9372
:1000A6000197E9F7E0E0EEBBEFEFEDBFE8E0EEBF6A
:1000B600C0E0D3E00C94FE002C978CE060E070E08A
:1000C600E8E6F0E06AD30A93539A529A549A559AFC
:1000D600569A579AA2E3B0E0D1D300E00C3070F400
:1000E600A2E0B0E0CBD3E02FF0E0DE011196AE0F38
:1000F600BF1FAC910FD00BD00F5FF0CFECE0E093B9
:100106000003A09100031ED008812D9608955B9AE6
:100116005B9808950A930A2F03FF02C05F9A01C0F5
:100126005F9802FF02C05E9A01C05E9801FF02C09E
:100136005D9A01C05D9800FF02C05C9A01C05C98A0
:10014600099108951A930A931A2F5A9804C01A937C
:100156000A931A2F5A9AA2E0B0E090D3E12FE07FDB
:100166000E2F02950F70A02FD5DFD1DFE12FEF7094
:100176000E2FA02FCFDFA2E0B0E080D3C8DF099119
:1001860019910895FFD21A2F2B2F00E0E02F0F5F51
:10019600F0E0E10FF21FA081DADFA12FB22FEE27E8
:1001A600A00FBE1FEC91E03089F7F3D222C01A935C
:1001B6000A930A2F1A81E02FF0E0309719F4A12F45
:1001C600A05814C0E130A0E0FA0719F4A12FA054FA
:1001D6000DC0E230A0E0FA0719F4A12FAC5606C014
:1001E600E330A0E0FA0719F4A12FAC52ABDF198176
:1001F600088123960895E0E8E0936100E4E0E09347
:1002060061005ADFE0E0E0938000EAE0E0938100DD
:10021600EAE7E0938900E1E1E0938800409A419A99
:10022600429A439A449AE4E0F3E0FA93EA93E4E7C5
:10023600F0E0FA93EA93E09101033DD2E0910203E4
:100246003AD2E091030337D28CE0EBD16096E4E03A
:10025600EA93A0E0ACDFA4E0B3E094DFB19BFECF6D
:10026600B19AA5E1B3E02AD2A0911503B091160385
:100276001497C1F4E0E0E0931503E0931603E091D0
:100286000303EF5FE0930303A0910303AC3351F440
:10029600E0E0E093030318D229F41FD219F4E0E05A
:1002A600E0930103A0E03099A1E023D2E8E1A1D2D6
:1002B600E02161F0E0910103EF5FE0930103A0917B
:1002C6000103A83119F4E0E0E0930103A0E03199BD
:1002D600A1E00FD2E0E092D2E02109F010D2A0E036
:1002E6003299A1E0E0E080D20E2EA0910203ECE369
:1002F60080D2E02139F0E8D129F4EFD119F4E0E019
:10030600E0930103339910C0A0910203A13024F0B9
:10031600E0910203E15006C0A0910103A13024F050
:10032600EED1EBE3E0930203349903C0E0E0E093FF
:10033600030379CFFFCF24D29D014D8112968BD234
:100346003097E1F0D901149686D28F01309759F093
:100356000230E0E01E0760F0F80131978F01D90105
:100366001496ED93FC93D9011296A8D13197408348
:10037600D90171D2FF230AF0A1D105C0D901EFEF4F
:10038600FFEFED93FC9303D226960895BA93AA93B2
:100396002B97F5D100E0A989BA89E0E0F0E0ED936A
:1003A600FC93EF89F88D3196EF8BF88F3197E491B6
:1003B6003E2FE03009F42EC1E02FE03031F4353223
:1003C60011F401E001C0A1D124C1E130A1F435321C
:1003D60011F49BD11DC102E050E010E03D3211F452
:1003E60011E017C13B3211F45BE213C1303211F454
:1003F60050E20FC102C0E23039F440E003E030338E
:1004060011F4106806C102C0E33091F4303310F0E5
:100416003A3308F007C0AAE04A9F402DE32FE05385
:100426004E0FF7C03C3619F4126005E0F2C003C067
:10043600E53009F0EEC0E32FE33639F46DD1ED89EE
:10044600FE89A481AA936ED1E3C0E33729F464D16F
:100456006FD118D10E2F07C0E03751F45DD168D1A6
:100466001DD10E2F18601F77E0E0E88B20E059C001
:10047600E43611F0E93611F4146002C0E53791F460
:10048600EAE0E88B11FF07C0E0E0FAEC6AE97BE3FB
:1004960059D10AE01FC0E0E1F7E260E070E052D116
:1004A60005E018C0E83511F4186003C0E83709F014
:1004B600AFC0E0E1E88B11FF07C0E0E0F0E060E0EC
:1004C60070E140D108E006C0E0E0F0E160E070E0F5
:1004D60039D104E011FF06C01FD1AD89BE8914963B
:1004E600BED10AC012FF04C017D131D178D104C0E1
:1004F60013D12DD166277727EC87FD876E877F87F7
:1005060012FF0FC0AF85AA233AF4EC85FD856E85F0
:100516007F8557D121D15DE2503011F00F5F01C0C8
:100526001B7F10FD10C0041770F417FF08C012FFE0
:1005360004C01B7F352F015001C030E301C030E2FB
:10054600E4D04150F0CF202FE889E030B1F42030DC
:1005560099F013FF06C0EE81FF813591EE83FF838C
:1005660005C0AE81BF813D91AE83BF83CED0403002
:1005760009F041502150EBCF42C0F3D044D13E2F79
:100586003A3030F013FF02C0395C01C0395A01C05D
:10059600305D14FD1EC0313348F4ECD0A130E0E0EC
:1005A600BE07E0E08E07E0E09E0709F409C04217A7
:1005B60010F010FF01C011C030E217FF0AC030E38F
:1005C600106112FF06C01B7F5A93ACD0403009F071
:1005D60041509BD0403009F041502150C2D037D114
:1005E600BBD0E889C7D0FF27662777270CD1AAD0CA
:1005F600E885F9856A857B853DD109F0BECF10FF78
:1006060007C0403029F04150E0E2EA938BD0F9CFA1
:1006160000E0C7CEA989BA89ED91FD91B7D0699658
:100626000895FF92F82E2697AAD0FE01C2D04685DD
:100636005785042E052A19F4EFEFFFEF1FC0DE01E0
:100646001896BBD08D0148875987E0E0EA87EB878B
:10065600DE011C96B2D0ED91FD91FA93EA931A93BE
:100666000A93EEE9F1E0FA93EA93DE011C968EDE38
:100676009F01A885B985E0E0EC93F90187D02C9617
:10068600FF900895BA93AA93A991B991EE27FF27EF
:100696006D91662311F03196FBCF0895BA93AA9314
:1006A600AA27BB27E991F9910590002011F0119630
:1006B600FBCFFD0108958DD0D8D00895ED91FD9121
:1006C6003196FE93EE930895E0910203EF5FE09377
:1006D6000203A0910203AC330895E0E0E093020325
:1006E600E0910103EF5FE0930103A0910103A831BC
:1006F6000895E0E079D00E2EA09101030895E091CF
:100706000103E150E093010308953A93AA89BB8956
:10071600EC89FD8909950895ED89FE893497ED8B5D
:10072600FE8B0895AA89BB89EC89FD8909950895F0
:10073600AD89BE891496ED91FD91EE83FF83AE815E
:10074600BF810895E887F9876A877B870895AD8911
:10075600BE89149680D00895EC87FD876E877F87C3
:100766000895E885F9856A857B85AC85BD858E8586
:100776009F850895A885B9858A859B8508955A938E
:100786004A933A932A931A930A9308955D814C816A
:100796003B812A81198108810895AF93BF93DB01BC
:1007A600AC0FBD1F05900D928A95E1F7BF91AF91F1
:1007B60008950024EF0DF01D08950024AF0DB01D1F
:1007C6000895F09560957095E195FF4F6F4F7F4FB7
:1007D6000895FE2FFF0FFF0B6F2F7F2F08956F2FAA
:1007E600660F660B762F0895EA17E1E009F0EE270B
:1007F6000895AE17E1E00CF0EE270895EA17E1E060
:100806000CF0EE2708953F934F935F930024112435
:10081600A00130E2AA0FBB1F881F991F001C111CE4
:10082600441F551F0E1A1F0A460B570B28F40E0EAF
:100836001F1E461F571F01C0A1603A9559F7FD01BB
:10084600BC01D001CA015F914F913F910895DBDF52
:10085600FD01BC010895ED91FC9111970895ED916C
:10086600FD916D917C91139708957A936A93FA930B
:10087600EA9308953097604070400895109639F0D5
:10088600A8958AEF90E00197F1F71197C9F70895B7
:00000001FF
