:060000000C944F000C946B
:1000060000000C9400000C9400000C9400000C946A
:1000160000000C9400000C9400000C9400000C945A
:1000260000000C9400000C9400000C9400000C944A
:1000360000000C9400000C9400000C9400000C943A
:1000460000000C9400000C9400000C9400000C942A
:1000560000000C9400000C9400000C9400000C941A
:10006600000003030302020C0008000100062052F0
:10007600616E646F6D204E756D626572730025301A
:100086003033690001002D4E414E00494E460000B6
:10009600010014038A000000F894EE27EFBBF1E09C
:1000A600F5BFE5BF8DE0A2E0BB27ED938A95E9F7A2
:1000B60080E098E0A0E0B1E0ED930197E9F7E6E98A
:1000C600F0E085919591009761F0A591B591059025
:1000D6001590BF01F00105900D920197E1F7FB0124
:1000E600F0CFE0E0EEBBEFEFEDBFE8E0EEBFC0E043
:1000F600D3E00C940F012C978CE060E070E0E8E60A
:10010600F0E02BD30A93539A529A549A559A569AD8
:10011600579AA2E3B0E0C2D300E00C3070F4A2E03C
:10012600B0E0BCD3E02FF0E0DE011196AE0FBF1FAA
:10013600AC910FD00BD00F5FF0CFECE0E093000353
:10014600A09100031ED008812D9608955B9A5B98B6
:1001560008950A930A2F03FF02C05F9A01C05F98B1
:1001660002FF02C05E9A01C05E9801FF02C05D9A5E
:1001760001C05D9800FF02C05C9A01C05C980991BD
:1001860008951A930A931A2F5A986CD23AC21A9360
:100196000A931A2F5A9A66D234C278D27CD2A49184
:1001A600F6DFE02FF0E0E10FF21FE491E030B1F767
:1001B600D0D230C06BD26FD2A081E9DFA12FB22F8F
:1001C600EE27A00FBE1FEC91E030A9F7C2D222C0E5
:1001D6001A930A930A2F1A81E02FF0E0309719F448
:1001E600A12FA05814C0E130A0E0FA0719F4A12FFE
:1001F600A0540DC0E230A0E0FA0719F4A12FAC56C6
:1002060006C0E330A0E0FA0719F4A12FAC52B9DF1B
:100216001981088123960895E0E8E0936100E4E0FF
:10022600E093610068DFA4E7B0E0B7DF409A399A4F
:10023600E1E0E5BD309936C0E6B5F0E0DF01DBD19F
:10024600E3D1DF01E8EEF3E004D3E0930103E2E05B
:10025600F3E0FA93EA93E4E8F0E0FA93EA93E091A4
:100266000103FF276627772710D384E093D12896CA
:10027600E6E0EA93A1E0ACDFA2E0B3E09BDFE0E0DA
:10028600E0931303A0911303A03550F4419A09D2C9
:10029600419807D2E0911303EF5FE0931303F2CF87
:1002A600309BFECFC7CFFFCF4BD29D014D8112961B
:1002B600E2D23097E1F0D9011496DDD28F01309762
:1002C60059F00230E0E01E0760F0F80131978F0127
:1002D600D9011496ED93FC93D9011296E7D1319783
:1002E6004083D901C8D2FF230AF0E0D105C0D90165
:1002F600EFEFFFEFED93FC932AD226960895BA937B
:10030600AA932B971CD200E0A989BA89E0E0F0E015
:10031600ED93FC93EF89F88D3196EF8BF88F31973B
:10032600E4913E2FE03009F42EC1E02FE03031F4A5
:10033600353211F401E001C0BFD124C1E130A1F48E
:10034600353211F4B9D11DC102E050E010E03D3262
:1003560011F411E017C13B3211F45BE213C13032E4
:1003660011F450E20FC102C0E23039F440E003E07C
:10037600303311F4106806C102C0E33091F4303313
:1003860010F03A3308F007C0AAE04A9F402DE32F49
:10039600E0534E0FF7C03C3619F4126005E0F2C088
:1003A60003C0E53009F0EEC0E32FE33639F48BD114
:1003B600ED89FE89A481AA938CD1E3C0E33729F4A1
:1003C60082D18DD136D10E2F07C0E03751F47BD1C3
:1003D60086D13BD10E2F18601F77E0E0E88B20E036
:1003E60059C0E43611F0E93611F4146002C0E5375D
:1003F60091F4EAE0E88B11FF07C0E0E0FAEC6AE965
:100406007BE377D10AE01FC0E0E1F7E260E070E04D
:1004160070D105E018C0E83511F4186003C0E8375C
:1004260009F0AFC0E0E1E88B11FF07C0E0E0F0E0C3
:1004360060E070E15ED108E006C0E0E0F0E160E077
:1004460070E057D104E011FF06C03DD1AD89BE89E9
:10045600149615D20AC012FF04C035D14FD19DD1D2
:1004660004C031D14BD166277727EC87FD876E878D
:100476007F8712FF0FC0AF85AA233AF4EC85FD856E
:100486006E857F8582D13FD15DE2503011F00F5FDE
:1004960001C01B7F10FD10C0041770F417FF08C0C1
:1004A60012FF04C01B7F352F015001C030E301C08D
:1004B60030E202D14150F0CF202FE889E030B1F48C
:1004C600203099F013FF06C0EE81FF813591EE834F
:1004D600FF8305C0AE81BF813D91AE83BF83ECD063
:1004E600403009F041502150EBCF42C011D18DD19F
:1004F6003E2F3A3030F013FF02C0395C01C0395A42
:1005060001C0305D14FD1EC0313348F40AD1A1305C
:10051600E0E0BE07E0E08E07E0E09E0709F409C0D0
:10052600421710F010FF01C011C030E217FF0AC0D9
:1005360030E3106112FF06C01B7F5A93CAD04030C9
:1005460009F04150B9D0403009F041502150E0D077
:100556008ED1D9D0E889E5D0FF276627772755D1F0
:10056600C8D0E885F9856A857B8594D109F0BECF28
:1005760010FF07C0403029F04150E0E2EA93A9D0CD
:10058600F9CF00E0C7CEA989BA89ED91FD91DED0F9
:1005960069960895FF92F82E2697D1D0FE01E9D0EC
:1005A60046855785042E052A19F4EFEFFFEF1FC085
:1005B600DE011896E2D08D0148875987E0E0EA8788
:1005C600EB87DE011C96D9D0ED91FD91FA93EA9363
:1005D6001A930A93E7E5F1E0FA93EA93DE011C9693
:1005E6008EDE9F01A885B985E0E0EC93F901AED0D7
:1005F6002C96FF9008951A930A938D01F801CDD099
:1006060095D0099119910895E0911403F09115037D
:100616006091160370911703ADE6BEE486EC91E493
:10062600C1D0EE59F8486F4F7F4F80D0FB01FF775E
:100636000895BA93AA93A991B991EE27FF276D91D0
:10064600662311F03196FBCF0895BA93AA93AA2791
:10065600BB27E991F9910590002011F01196FBCF87
:10066600FD010895A2E0B0E019D1E12FE07F0E2F41
:1006760002950F70A02F6DDD69DDE12FEF700E2F53
:10068600A02F67DDA2E0B0E009D160CD5BD01A2FC4
:100696002B2F00E00895E02F0F5FF0E0E10FF21F2F
:1006A600089588E391E00197F1F70895ED91FD91A2
:1006B6003196FE93EE9308953A93AA89BB89EC8905
:1006C600FD8909950895ED89FE893497ED8BFE8B9A
:1006D6000895AA89BB89EC89FD8909950895AD8994
:1006E600BE891496ED91FD91EE83FF83AE81BF81A5
:1006F6000895E887F9876A877B870895AD89BE895B
:100706001496B9D00895EC87FD876E877F87089584
:10071600E885F9856A857B85AC85BD858E859F854F
:100726000895A885B9858A859B850895E093140365
:10073600F0931503609316037093170308955A9365
:100746004A933A932A931A930A9308955D814C81AA
:100756003B812A81198108810895AF93BF93DB01FC
:10076600AC0FBD1F05900D928A95E1F7BF91AF9131
:1007760008950024EF0DF01D08950024AF0DB01D5F
:100786000895F195E195F0400895F095609570957E
:10079600E195FF4F6F4F7F4F08956F2F660F660BE2
:1007A600762F08957A9F702D6B9F700DF89F700DB0
:1007B600E99F700D6A9F602D710DFB9F600D711D85
:1007C600E89F600D711D8827FA9FF02D610D781F37
:1007D600EB9FF00D611D781FEA9FE02DF10D681F5C
:1007E600781F08950024112490E1AA0FBB1F001C56
:1007F600111C0E1A1F0A18F40E0E1F1E01C0A1604E
:100806009A9599F7FD01D00108953F934F935F9311
:1008160000241124A00130E2AA0FBB1F881F991FD4
:10082600001C111C441F551F0E1A1F0A460B570B9E
:1008360028F40E0E1F1E461F571F01C0A1603A95D1
:1008460059F7FD01BC01D001CA015F914F913F915B
:100856000895E894B7FF04C0B195A195B040689497
:10086600F7FD8FDFBFDFFD010EF48BDF0895CDDFCF
:10087600FD01BC010895ED91FC9111970895ED914C
:10088600FD916D917C91139708957A936A93FA93EB
:10089600EA9308953097604070400895109639F0B5
:1008A600A8958AEF90E00197F1F71197C9F7089597
:00000001FF
