:020000040000FA
:100000000A128A11F32FFF1B0D2883137F18831701
:100010000008840A0319FF0A080000308A00040857
:10002000840A82070034013400340A340034643412
:100030000034E834033410342734533465346E34D8
:1000400073346F3472342034313420343D342034EE
:10005000253464340034533465346E3473346F346F
:1000600072342034323420343D3420342534643426
:100070000034703472346F346734723461346D34E8
:10008000613420344C344334443400344D346934C6
:1000900020347034723469346D3465347234003411
:1009180064008001840A04060319003404068D2C3F
:1009280000300A128A11A1240A128A1101300A120F
:100938008A11A1240A128A110800F30083120313F2
:10094800071173080A128A11BB240A128A1183122A
:10095800031387150630F2003030F100F10BB22C8A
:10096800F20BB22C00008312031387110800F00069
:10097800701CBF2CC02CC42C831203130716C72C61
:10098800831203130712F01CCA2CCB2CCD2C87160C
:10099800CE2C8712701DD12CD22CD42C0717D52C15
:1009A8000713F01DD82CD92CDB2C8717DC2C8713C8
:1009B8000800F40074080F39F2007408F039F300E5
:1009C8008312031307157308F10004300310F10CA8
:1009D800FF3E031DEA2C71080A128A11BB240A1271
:1009E8008A118312031387150D30F100F10BFA2CCD
:1009F80083120313871172080A128A11BB240A1280
:100A08008A118312031387150D30F100F10B0A2D9B
:100A18008312031387110800780879040319152D28
:100A2800162D452DFD01FD0A242D01300310F80D6A
:100A3800F90DFF3E031D1A2D0130FC007C08FD074F
:100A4800F91F272D282D192D79087B02031D2E2D1E
:100A580078087A02031C312D322D382D7808FA02D5
:100A68007908031CFB03FB0201300310F90CF80C96
:100A7800FF3E031D392D0130FD02031D442D452D78
:100A8800282D7B08F9007A08F8000800FA01FB0114
:100A98006F2D7A087507F8007608F7000318F70A2B
:100AA800FA1F572DF7037708F90079088312031303
:100AB800FF00780884000A128A1103200A128A119A
:100AC8000A128A11DD240A128A110130FA07031862
:100AD800FB0A0030FB077A087507F8007608F7006C
:100AE8000318F70AFA1F792DF7037708F900790830
:100AF80083120313FF00780884000A128A11032066
:100B08000A128A11003A031D8A2D8B2D4D2D0800DB
:100B1800F501F601700871040319932D942DCB2D5E
:100B2800F701F70AA22D01300310F00DF10DFF3E79
:100B3800031D982D0130F4007408F707F11FA52D47
:100B4800A62D972D01300310F50DF60DFF3E031D60
:100B5800A72D71087302031DB32D70087202031CC0
:100B6800B62DB72DBE2D7008F2027108031CF303D1
:100B7800F302751401300310F10CF00CFF3E031D55
:100B8800BF2D0130F702031DCA2DCB2DA62D7608E7
:100B9800F1007508F0000800F6007603031DD52D56
:100BA800D62DF32D74087F3EF9007908F50004303E
:100BB8000310F50CFF3E031DDC2D7508F7007908BE
:100BC8000F39F80077080A128A11A1240A128A112B
:100BD80078080A128A11A1240A128A11152E0230E5
:100BE8007606031DF82DF92D152E7408BF3EF90061
:100BF8007908F50004300310F50CFF3E031DFF2DA6
:100C08007508F70079080F39F80077080A128A1171
:100C1800A1240A128A1178080A128A11A1240A1238
:100C28008A11080000300A128A11BB240A128A119C
:100C38001A30F500F830F400F40B202EF50B202EB6
:100C4800000003300A128A11A1240A128A110730FF
:100C5800F5007D30F400F40B2F2EF50B2F2E03300A
:100C68000A128A11A1240A128A110F30F50047309E
:100C7800F400F40B3D2EF50B3D2E422E03300A12E4
:100C88008A11A1240A128A1102300A128A11A12497
:100C98000A128A1102300A128A11A1240A128A1130
:100CA80008300A128A11A1240A128A1100300A1285
:100CB8008A11A1240A128A110C300A128A11A1245D
:100CC8000A128A1100300A128A11A1240A128A1102
:100CD80006300A128A11A1240A128A110800831602
:100CE800031387018312031387010A128A11162638
:100CF8000A128A110A128A1194240A128A11F4011A
:100D0800F40A01300A128A11D0250A128A113430E5
:100D1800F5008030F6000A128A114A250A128A1153
:100D2800F401F40A02300A128A11D0250A128A1133
:100D38002730F5008030F6000A128A114A250A1277
:100D48008A110B3083120313C8002630C7005D30A8
:100D5800C600C60BAD2EC70BAD2EC80BAD2E831229
:100D6800031306080139C600C7014608A200470850
:100D7800A300060C0139C600C7014608A0004708B1
:100D8800A1000B30B5002308B7002208B6002430B4
:100D98000A128A1119270A128A110A128A1194242E
:100DA8000A128A11F401F40A01300A128A11D025B4
:100DB8000A128A112430F5000030F6000A128A114E
:100DC8004A250A128A11193083120313B500210823
:100DD800B7002008B60024300A128A1119270A120F
:100DE8008A11F401F40A02300A128A11D0250A1273
:100DF8008A112430F5000030F6000A128A114A25BB
:100E08000A128A11023083120313C8000430C70083
:100E1800B930C600C60B0E2FC70B0E2FC80B0E2FEE
:100E2800152FB32E0A128A11002883120313C0004B
:100E38003630BB00DE2F253041060319242F252F1D
:100E48002F2F400884004108831380000130B80028
:100E58003808C007DE2FBC010130B507FF30350761
:100E680084000A128A110D200A128A11C100B800E2
:100E7800B9013908003A0319422FDE2F3808003A21
:100E88000319EE2F643A03194D2F0D3A03194D2F0C
:100E9800DE2F3B08840083130008BE00840A000884
:100EA800BF000230B8003808BB07BF1F5C2F5D2F9A
:100EB800662F0330B8003808BC04BE09BF09BE0A53
:100EC8000319BF0AC101C10A4108B8003807013E29
:100ED80084000A128A110D200A128A11B9000A1216
:100EE8008A110D200A128A11BA003A083F02031D1E
:100EF8007F2F39083E020318822F832F842F8E2FCD
:100F08000130B8003808C10705304106031D8D2F90
:100F18008E2F682F3C0803390319932F942F9D2F88
:100F2800400884002D30831380000130B800380851
:100F3800C0074108BD00D52F0A30F8000030F9007D
:100F48003D08B8003807013E84000A128A110D20B6
:100F58000A128A11F0000A128A110D200A128A1147
:100F6800F1003F08F3003E08F2000A128A118C25AE
:100F78000A128A117108FB007008FA000A128A1115
:100F880010250A128A117808303E83120313C10013
:100F9800400884004108831380000130B8003808F5
:100FA800C007FF30B8003808BD073D0A031DDD2F14
:100FB800DE2FA02F0130B507FF30350784000A1255
:100FC8008A110D200A128A11C1004108031DED2F54
:100FD800EE2F1F2F4008840083138001080083131D
:100FE8002030840035300A128A118C240A128A11A2
:080FF80083010A128A11732E15
:02400E00393F38
:00000001FF
