:080000000C947E000C9400003A
:100008000C9400000C9400000C9400000C94000068
:100018000C9400000C9400000C9400000C94000058
:100028000C9400000C9400000C9400000C94000048
:100038000C9400000C9400000C9400000C94000038
:100048000C9400000C9400000C9400000C94000028
:100058000C9400000C9400000C9400000C94000018
:1000680003030302020C000800010006524F434B31
:10007800202020200050415045522020200053438A
:100088004953534F525300202020524F434B0020D6
:100098002050415045520020504C41590053454C86
:1000A8004543542020004F4B204120202020200091
:1000B8002053454C454354002020204F4B204200FC
:1000C80054494520202020004120574F4E2000420F
:1000D80020574F4E200057494E4E45522041200090
:1000E80057494E4E455220422000202020202020F3
:1000F80020202000F894EE27EFBBF1E0F5BFE5BF24
:100108008DE0A2E0BB27ED938A95E9F780E098E0BF
:10011800A0E0B1E0ED930197E9F7E0E0EEBBEFEF87
:10012800EDBFE8E0EEBFC0E0D3E00C946F012C9780
:100138008CE060E070E0E8E6F0E095D10A93219A5F
:10014800209A229A239A249A259AA2E3B0E09ED173
:1001580000E00C3070F4A2E0B0E098D1E02FF0E0BD
:10016800DE011196AE0FBF1FAC910FD00BD00F5F01
:10017800F0CFECE0E0930003A09100031ED00881CB
:100188002D960895299A299808950A930A2F03FF0E
:1001980002C02D9A01C02D9802FF02C02C9A01C0FE
:1001A8002C9801FF02C02B9A01C02B9800FF02C0B7
:1001B8002A9A01C02A98099108951A930A931A2F26
:1001C800289804C01A930A931A2F289AA2E0B0E03C
:1001D8005DD1E12FE07F0E2F02950F70A02FD5DFA4
:1001E800D1DFE12FEF700E2FA02FCFDFA2E0B0E01C
:1001F8004DD1C8DF0991199108952DD11A2F2B2FB0
:1002080000E0E02F0F5FF0E0E10FF21FA491DADFCA
:10021800E02FF0E0E10FF21FE491E03091F71FD1F9
:1002280022C01A930A930A2F1A81E02FF0E0309720
:1002380019F4A12FA05814C0E130A0E0FA0719F46E
:10024800A12FA0540DC0E230A0E0FA0719F4A12FA5
:10025800AC5606C0E330A0E0FA0719F4A12FAC525F
:10026800ACDF1981088123960895E0E0D7D0A05D1E
:10027800A9DFEFE0EA93A0E0D4DFA0910203A05D3C
:10028800A1DF0895D1D0D7D019F4A4E7B0E00DC00C
:10029800E230A0E0FA0719F4ADE7B0E006C0E330B9
:1002A800A0E0FA0719F4A6E8B0E0A7DFC9D0C3D0E8
:1002B80019F4AFE8B0E00DC0E230A0E0FA0719F495
:1002C800A7E9B0E006C0E330A0E0FA0719F4A6E811
:1002D800B0E093DF08952BDFE1EEEBB9E7E0E8B992
:1002E800C4DFB5D0AFE9B0E088DFE0E0E093030316
:1002F800E09304034D9903C0E1E0E09303034E99B2
:1003080003C0E2E0E09303034F9903C0E3E0E09306
:100318000303309903C0E1E0E0930403319903C07B
:10032800E2E0E0930403329903C0E3E0E0930403BE
:100338007BD0E03019F4A5EAB0E002C0AEEAB0E044
:100348005CDF7ED0E03019F4A8EBB0E002C0A0EC8E
:10035800B0E053DFA0910303A03021F0A091040383
:10036800A03009F4C7CF8EDF72D0A0910303BB275A
:10037800E0910403F0E083D0EA1BFB0B309721F4F3
:10038800A8ECB0E03ADF21C0E130A0E0FA0721F0A4
:10039800EE3FAFEFFA0749F4A0EDB0E02EDFE091B1
:1003A8000103EF5FE093010310C0EF3FAFEFFA07DF
:1003B80021F0E230A0E0FA0741F4A7EDB0E01DDF3C
:1003C800E0910203EF5FE09302034FDFACEDB5E08D
:1003D8005DD0A0910103A53021F0A0910203A530C2
:1003E800D9F4E4E01BD0A53019F4AEEDB0E002C0BA
:1003F800A8EEB0E002DFA4E6B0E048D028D0A2EF33
:10040800B0E0FBDEA4E6B0E041D04899EACFE0E0F6
:10041800E0930103E093020363CFFFCFEA93A0E0E8
:1004280000DFA09101030895E0E0EA93A1E0F9DE7E
:10043800E09103030895F0E0E130A0E0FA070895A1
:10044800E9E0EA93A1E0EDDEE09104030895E4E039
:10045800EA93A0E0E6CE2A931A930A9308952A8194
:10046800198108810895AF93BF93DB01AC0FBD1FBD
:1004780005900D928A95E1F7BF91AF9108951B2ED3
:10048800BF2FF12D1A2EAE2FE12D0895109639F0B9
:10049800A8958AEF90E00197F1F71197C9F70895A9
:00000001FF
