:020000040000FA
:020000000B28CB
:10000800CE00030E83128F000A0890007B280C286C
:1000180083129701980199019A019B019C019D0106
:100028009E018301172883168501F130860083120B
:10003800850186018B018B178B150B1683121B0309
:100048001C04031D282829285B289B019C011703F1
:100058001804031D30283128582845288501FE201A
:1000680083128514222885010515E7202228850199
:100078008515D020222885010516152122288501FD
:1000880022281A08003A03194A2843281908013A6D
:1000980003193228033A03193728013A03193B2870
:1000A800073A03193F284328850186102228170399
:1000B8001804031D6028612877286428FE20222858
:1000C8001A08003A0319692843281908013A03193C
:1000D8006228033A03193928013A03193D28073AD7
:1000E8000319412843288501861022280B28051466
:1000F80001309B0000309C008B1C832884289228A8
:1001080017081804031D89288A288F2801309700AA
:1001180000309800B22897019801B228061E952849
:1001280096289A280130990000309A00861E9D284A
:100138009E28A2280230990000309A00061FA528A0
:10014800A628AA280330990000309A00861FAD28F7
:10015800AE28B2280430990000309A0002308E0090
:1001680086308D0099308C008C0BB8288D0BB82800
:100178008E0BB8288312051006088C008D010C0818
:100188009D000D089E000B108B1010088A000F0EA2
:100198008300CE0E4E0E0900831286146230920040
:1001A80065309100910BD628920BD628DB28831254
:1001B80086102130920076309100910BE128920B45
:1001C800E128000008008312861441309200EE30C6
:1001D8009100910BED28920BED28000083128610F8
:1001E80041309200EE309100910BF828920BF828DC
:1001F80000000800831286142130920076309100A6
:10020800910B0429920B0429000083128610623096
:10021800920065309100910B0F29920B0F29142938
:0802280008008312861408008F
:02400E00F93F78
:00000001FF
