:020000040000FA
:020000000B28CB
:10000800CE00030E83128E000A088F0017280C28D2
:10001800831296019701980199019A019B019C010D
:100028009D018301882827308D00F5308C008C0BCA
:100038001B288D0B1B288B1C22282328322883126F
:100048001C031D04031D29282A282F280130980085
:100058000030990078289801990178288312061DA4
:100068003628372844281C031D04031D3C283D2836
:1000780040289C019D01442801309C0000309D00CF
:10008800861C4728482861280130980000309900CC
:10009800980199011C031D04031D53285428612845
:1000A8001A031B04031D59285A285D289A019B012D
:1000B800612801309A0000309B0086196428652861
:1000C8007128061A682869287128861A6C286D28EC
:1000D8007128061F7028712878281A031B04031D2D
:1000E8007628772878282A2806088C008D010C089D
:1000F80096000D0897000B108B100F088A000E0E43
:100108008300CE0E4E0E090083168501FF3086004F
:100118008312850186018B018B170B168B158312B1
:100128001C031D04031D99289A28C5281A031B04BB
:10013800031D9F28A028C22818031904031DA528F9
:10014800A628AA28051585100510932805118510DD
:10015800051441309500EE309400940BB128950BAE
:10016800B12800008312051041309500EE3094004C
:10017800940BBC28950BBC28000093288514051007
:0C018800932805108510051193280B2802
:02400E00F93F78
:00000001FF
