:100000000EEF00F00000000000EF00F00000000024
:0A0010000000000000000000F3D71C
:10001C00C26AC36AC46AC56AC66ABA6ABB6ABC6A7F
:10002C00BD6ABE6A290E0B6E960E0C6E7F0E0D6E9F
:10003C000D2EFED70C2EFCD70B2EFAD7FF0EBA6E58
:10004C00FF0EBB6EFF0EBC6EFF0EBD6EFF0EBE6EC6
:10005C00290E0B6E960E0C6E7F0E0D6E0D2EFED7AE
:0C006C000C2EFCD70B2EFAD7D8D7FFD7EC
:020000040030CA
:0A000000220BFFB70B3F9F0F01001A
:00000001FF
