:0E0000000C9434000C9400000C9400000C943E
:10000E0000000C9400000C9400000C9400000C9462
:10001E0000000C9400000C9400000C9400000C9452
:10002E0000000C9400000C9400000C9400000C9442
:10003E0000000C9400000C9400000C9400000C9432
:10004E0000000C9400000C9400000C9400000C9422
:10005E0000000C9400000C940000F894EE27EFBB07
:10006E00F1E0F5BFE5BF8DE0A2E0BB27ED938A95E9
:10007E00E9F780E098E0A0E0B1E0ED930197E9F7B1
:10008E00E0E0EEBBEFEFEDBFE8E0EEBFC0E0D3E0A7
:10009E000C945100E0E8E0936100E0E0E093610031
:1000AE00569AE2E4E4BDE4E0E5BDE6E6E7BD219A5A
:1000BE00E0E4E0938000E9E0E0938100EEE3E0937A
:1000CE008900E0E0E0938800239AE2E4E093B00038
:1000DE00E4E0E093B100E1EBE093B300FFCFFFCF9C
:00000001FF
