:020000000C945E
:100002006B000C9400000C9400000C9400000C9403
:1000120000000C9400000C9400000C9400000C945E
:1000220000000C9400000C9400000C9400000C944E
:1000320000000C9400000C9400000C9400000C943E
:1000420000000C9400000C9400000C9400000C942E
:1000520000000C9400000C9400000C9400000C941E
:1000620000000C94000003030302020C00080001CC
:1000720000060A0A0A00110E00150E1F0E150204D0
:100082000E010F110F00436C617365206465204DF2
:100092006963726F7300496E766965726E6F2032A2
:1000A20030323300496E696369617200206C61000D
:1000B200706172746520707200637469636100001C
:1000C200060000037400060008037A00070010030C
:1000D20080000000F894EE27EFBBF1E0F5BFE5BF2A
:1000E200F8E1A895A4B7A77FA4BFF0936000E093BE
:1000F20060008DE0A2E0BB27ED938A95E9F780E0EE
:1001020098E0A0E0B1E0ED930197E9F7E2ECF0E0CE
:1001120085919591009761F0A591B5910590159003
:10012200BF01F00105900D920197E1F7FB01F0CFBD
:10013200E0E0EEBBEFEFEDBFE8E0EEBFC0E0D3E002
:100142000C9442012C978CE0A0E0B0E0E8E6F0E0ED
:10015200F6D01A93219A209A229A239A249A259ABF
:10016200A2E3B0E0F3D010E01C3070F4A2E0B0E003
:10017200EDD0E12FF0E0DE011196AE0FBF1FAC9182
:100182000DD009D01F5FF0CFECE05E2EA52D21D05F
:1001920018812D960895299A29980895AA93E8819D
:1001A200E87011F02D9A01C02D98E881E47011F0E9
:1001B2002C9A01C02C98E881E27011F02B9A01C0B0
:1001C2002B98E881E17011F02A9A01C02A982196B1
:1001D2000895AA931A93289892D036C0AA931A9394
:1001E200289A8DD031C0BA93AA931A9310E0E12FC6
:1001F2001F5F9BD0A491F2DFE12F97D0E491E03012
:10020200B1F7188123960895A1E0E3DF0895AA9338
:10021200E881F0E0309719F4A981A05814C0E130C8
:10022200A0E0FA0719F4A981A0540DC0E230A0E0C1
:10023200FA0719F4A981AC5606C0E330A0E0FA0728
:1002420019F4A981AC52C5DF22960895BA93AA93F4
:100252001A93EB81EE0FEE0FEE0FE05CAE2FB9DFDB
:1002620010E0183048F4A981BA81EE27A10FBE1F11
:10027200AC91B4DF1F5FF5CFA0E8ABDF1881249605
:10028200089560DFE0E0EA93A0E0B3E0DFDFE1E0C1
:10029200EA93A8E0B3E0DADFE2E0EA93A0E1B3E0B8
:1002A200D5DFE0E0EA93A0E0B2DFA8E8B0E09BDFB0
:1002B200E1E0EA93A1E0ABDFA8E9B0E094DF3BD054
:1002C200E2E0EA93A0E0A3DFA6EAB0E08CDFA2E0DE
:1002D20085DFAEEAB0E087DFE0E0EA93A1E097DFF6
:1002E200A2EBB0E080DFA2E079DFABEBB0E07BDF36
:1002F200A0E074DFA1E072DF1ED0D3CFFFCFA2E077
:10030200B0E024D0E981E07F1E2F12951F70A12F4B
:1003120045DF41DFE981EF701E2FA12F3FDFA2E011
:10032200B0E014D038DF18810895A981BA81F0E0D5
:10033200EA0FFB1F0895A0EDB7E008D065CFAC0F20
:10034200BD1F05900D928A95E1F70895109639F038
:10035200A8958AEF90E00197F1F71197C9F70895F0
:00000001FF
