:0C0000000C943D000C9400000C940000D7
:10000C000C9400000C9400000C9400000C94000064
:10001C000C9400000C9400000C9400000C94000054
:10002C000C9400000C9400000C9400000C94000044
:10003C000C9400000C9400000C9400000C94000034
:10004C000C9400000C9400000C9400000C94000024
:10005C000C9400000C9400000C940000FC60DBF38A
:10006C0066B7BEE1FEF60A00010368000000F894D2
:10007C00EE27EFBBF1E0F5BFE5BF8DE0A2E0BB27BB
:10008C00ED938A95E9F780E098E0A0E0B1E0ED937C
:10009C000197E9F7E2E7F0E085919591009761F01F
:1000AC00A591B59105901590BF01F00105900D92A9
:1000BC000197E1F7FB01F0CFE0E0EEBBEFEFEDBF16
:1000CC00E8E0EEBFC0E0D3E00C946C00EFEFEAB9CF
:1000DC00E0E0E7B9EFE0E8B9E0910003F0E0EF5FB2
:1000EC00FC4FE081EBB9309905C0E0910003EF5F64
:1000FC00E0930003A0910003AA3019F4E0E0E09330
:10010C000003A8EEB3E002D0E7CFFFCF109639F092
:10011C00A8958AEF90E00197F1F71197C9F7089528
:00000001FF
