:100000000C9460000C9400000C9400000C94000010
:100010000C9400000C9400000C9400000C94000060
:100020000C9400000C9400000C9400000C94000050
:100030000C9400000C9400000C9400000C94000040
:100040000C9400000C9400000C9400000C94000030
:100050000C9400000C9400000C9400000C94000020
:100060000C9400000C94000003030302020C00082F
:10007000000100060E1D1E1C1E1F0E000E1D1F1E61
:100080001F1F0E000E171F0F1F1F0E000E171F1F22
:100090001F1F0E0048656C6C6F004D722E20506162
:1000A000634D616E0000070001037400070009033F
:1000B0007C00070011038400070019038C00000076
:1000C000F894EE27EFBBF1E0F5BFE5BF8DE0A2E0CD
:1000D000BB27ED938A95E9F780E098E0A0E0B1E0D6
:1000E000ED930197E9F7E6EAF0E0859195910097A5
:1000F00061F0A591B59105901590BF01F0010590B3
:100100000D920197E1F7FB01F0CFE0E0EEBBEFEFDE
:10011000EDBFE8E0EEBFC0E0D3E00C947A012C978D
:100120008CE060E070E0E8E6F0E0FAD10A93539AE0
:10013000529A549A559A569A579AA2E3B0E006D228
:1001400000E00C3070F4A2E0B0E000D2E02FF0E06C
:10015000DE011196AE0FBF1FAC910FD00BD00F5F19
:10016000F0CFECE0E0930003A09100031DD00881E4
:100170002D9608955B9A5B9808950A930A2F03FFC2
:1001800002C05F9A01C05F9802FF02C05E9A01C080
:100190005E9801FF02C05D9A01C05D9800FF02C039
:1001A0005C9A01C05C988FC01A930A931A2F5A98D0
:1001B00004C01A930A931A2F5A9AA2E0B0E0C6D14B
:1001C000E12FE07F0E2F02950F70A02FD6DFD2DF38
:1001D000E12FEF700E2FA02FD0DFA2E0B0E0B6D15C
:1001E000C9DF09911991089592D11A2F2B2F00E0A0
:1001F000E02F0F5FF0E0E10FF21FA491DADFE02FB4
:10020000F0E0E10FF21FE491E03091F785D122C0D8
:100210001A930A930A2F1A81E02FF0E0309719F40D
:10022000A12FA05814C0E130A0E0FA0719F4A12FC3
:10023000A0540DC0E230A0E0FA0719F4A12FAC568B
:1002400006C0E330A0E0FA0719F4A12FAC52ACDFEE
:10025000198108812396089559D11A2F2B2F3C819B
:10026000E32FEE0FEE0FEE0FE05CAE2F9DDF00E010
:10027000083048F4A12FB22FEE27A00FBE1FAC917B
:1002800098DF0F5FF5CFA0E88FDF45D12596089561
:100290000A930A2FE02FE064E0937C0083E08A95C4
:1002A000F1F7E0917A00E064E0937A00E0917A005F
:1002B000E071E1F3E0917A00E061E0937A00E0918F
:1002C0007800F091790009910895A0E0E1DF34D140
:1002D000DF013CD10895E5E0EA93A0E099DFA4E9CD
:1002E000B0E082DFE3E0EA93A1E092DFAAE9B0E0C8
:1002F0007BDF0895E0E8E0936100E4E0E0936100D3
:10030000E0E4E0937C00E1E0E0937E00E3E8E0934A
:100310007A00E0E0E0937B0002DFE0E0EA93A1E016
:10032000B3E09ADFE1E0EA93A9E0B3E095DFE2E031
:10033000EA93A1E1B3E090DFE3E0EA93A9E1B3E05F
:100340008BDF419AC8DFA0E03199A1E0E0E0A4D0C2
:1003500019F0E1E0E0932303A0E03199A1E0E1E0AE
:100360009BD031F0E3E0E0932303EFE0E09322033E
:10037000A0912303A130F9F497D0A0912103A031DB
:100380009CF497D0319B03C0E3E099D00DC0A2D07C
:10039000A0E00FDF9ADF9ED0A1E00BDF96DF9AD0BE
:1003A000A0E207DF9CD0E9CFA0912303A13019F48C
:1003B000E2E0E0932303A0912303A23011F574D06F
:1003C000A0912103A030B4F090D0319B06C0E4E0AE
:1003D000E09323036ED06DD00DC08DD0A2E0E9DE96
:1003E00074DF89D0A3E0E5DE70DF85D0A0E2E1DE36
:1003F00087D0E6CFA0912303A23019F4E0E0E09388
:100400002303A0912303A33011F54ED0A091210323
:10041000A030B4F06AD0319906C0E1E0E093230344
:1004200048D047D00DC056D0A2E0C3DE4EDF52D038
:10043000A3E0BFDE4ADF4ED0A0E2BBDE61D0E6CF54
:10044000A0912303A33019F4E4E0E0932303A091E7
:100450002303A430F9F428D0A0912103A0319CF407
:1004600028D0319903C0E2E02AD00DC044D0A0E0EA
:10047000A0DE2BDF40D0A1E09CDE27DF3CD0A0E255
:1004800098DE2DD0E9CFA0912303A43019F4E0E049
:10049000E093230357CFFFCF54D00E2EA091230318
:1004A000E0E04FD0E0210895E0912203E0932103A2
:1004B0000895E0912203EF5FE09322030895E09313
:1004C0002303E0912203E150E0932203E150E09303
:1004D00022030895E0912103EA93A0E099CEE091F0
:1004E0002103EF5FE09321030895E0912203E1509F
:1004F000E09322030895E0912103EA93A1E088CEDE
:10050000E0912103E150E093210308953A932A9367
:100510001A930A9308953B812A81198108810895CD
:10052000AF93BF93DB01AC0FBD1F05900D928A9571
:10053000E1F7BF91AF910895F695E795F695E795A8
:100540000895EA17E1E009F0EE270895109639F0D2
:10055000A8958AEF90E00197F1F71197C9F70895F0
:00000001FF
