:020000000C945E
:1000020034000C9400000C9400000C9400000C943A
:1000120000000C9400000C9400000C9400000C945E
:1000220000000C9400000C9400000C9400000C944E
:1000320000000C9400000C9400000C9400000C943E
:1000420000000C9400000C9400000C9400000C942E
:1000520000000C9400000C9400000C9400000C941E
:1000620000000C940000F894EE27EFBBF1E0F5BF1E
:10007200E5BF8DE0A2E0BB27ED938A95E9F780E02A
:1000820098E0A0E0B1E0ED930197E9F7E0E0EEBB84
:10009200EFEFEDBFE8E0EEBFC0E0D3E00C9451001B
:1000A200E0E8E0936100E4E0E0936100289A219A9D
:1000B200189912C0F09B02C0F09801C0F09AF09912
:1000C20002C0299801C0299AAEE1B0E007D0189B7E
:1000D200FECFAAE0B0E002D0EBCFFFCF109639F00E
:1000E200A8958AEF90E00197F1F71197C9F7089563
:00000001FF
